{
  "contractName": "voting",
  "abi": [
    {
      "inputs": [
        {
          "internalType": "uint256",
          "name": "",
          "type": "uint256"
        }
      ],
      "name": "_candidates",
      "outputs": [
        {
          "internalType": "string",
          "name": "name",
          "type": "string"
        },
        {
          "internalType": "string",
          "name": "vyingPosition",
          "type": "string"
        },
        {
          "internalType": "uint256",
          "name": "voteCount",
          "type": "uint256"
        }
      ],
      "stateMutability": "view",
      "type": "function",
      "constant": true
    },
    {
      "inputs": [],
      "name": "electionOfficer",
      "outputs": [
        {
          "internalType": "address",
          "name": "",
          "type": "address"
        }
      ],
      "stateMutability": "view",
      "type": "function",
      "constant": true
    },
    {
      "inputs": [],
      "name": "expireTime",
      "outputs": [
        {
          "internalType": "uint256",
          "name": "",
          "type": "uint256"
        }
      ],
      "stateMutability": "view",
      "type": "function",
      "constant": true
    },
    {
      "inputs": [
        {
          "internalType": "string[]",
          "name": "candidateInfo",
          "type": "string[]"
        },
        {
          "internalType": "string[]",
          "name": "position",
          "type": "string[]"
        },
        {
          "internalType": "uint256",
          "name": "_timeLimit",
          "type": "uint256"
        }
      ],
      "name": "createPoll",
      "outputs": [],
      "stateMutability": "nonpayable",
      "type": "function"
    },
    {
      "inputs": [
        {
          "internalType": "address[]",
          "name": "_voter",
          "type": "address[]"
        },
        {
          "internalType": "uint256[]",
          "name": "_studentId",
          "type": "uint256[]"
        }
      ],
      "name": "approveVoters",
      "outputs": [],
      "stateMutability": "nonpayable",
      "type": "function"
    },
    {
      "inputs": [
        {
          "internalType": "address",
          "name": "_address",
          "type": "address"
        },
        {
          "internalType": "uint256",
          "name": "_choice",
          "type": "uint256"
        }
      ],
      "name": "castVote",
      "outputs": [],
      "stateMutability": "nonpayable",
      "type": "function"
    },
    {
      "inputs": [],
      "name": "winningCandidate",
      "outputs": [
        {
          "internalType": "uint256",
          "name": "winningCandidate_",
          "type": "uint256"
        }
      ],
      "stateMutability": "view",
      "type": "function",
      "constant": true
    },
    {
      "inputs": [],
      "name": "winnerName",
      "outputs": [
        {
          "internalType": "string",
          "name": "winnerName_",
          "type": "string"
        },
        {
          "internalType": "string",
          "name": "vyingPosition_",
          "type": "string"
        }
      ],
      "stateMutability": "view",
      "type": "function",
      "constant": true
    }
  ],
  "bytecode": "0x608060405234801561001057600080fd5b50611841806100206000396000f3fe608060405234801561001057600080fd5b50600436106100885760003560e01c8063b9af3a4f1161005b578063b9af3a4f14610117578063d28178d714610133578063e2ba53f014610151578063ff91bb451461017057610088565b80631bab71381461008d578063310a1ee3146100a9578063648a305a146100c7578063a215059c146100f9575b600080fd5b6100a760048036038101906100a291906110b0565b61018c565b005b6100b1610311565b6040516100be9190611395565b60405180910390f35b6100e160048036038101906100dc919061112f565b610317565b6040516100f0939291906112b0565b60405180910390f35b610101610461565b60405161010e919061125e565b60405180910390f35b610131600480360381019061012c9190611044565b610487565b005b61013b61069e565b6040516101489190611395565b60405180910390f35b61015961080d565b604051610167929190611279565b60405180910390f35b61018a60048036038101906101859190611008565b6109ce565b005b33600260006101000a81548173ffffffffffffffffffffffffffffffffffffffff021916908373ffffffffffffffffffffffffffffffffffffffff16021790555060005b83518110156102f9576000604051806060016040528086848151811061021f577f4e487b7100000000000000000000000000000000000000000000000000000000600052603260045260246000fd5b60200260200101518152602001858481518110610265577f4e487b7100000000000000000000000000000000000000000000000000000000600052603260045260246000fd5b602002602001015181526020016000815250908060018154018082558091505060019003906000526020600020906003020160009091909190915060008201518160000190805190602001906102bc929190610cf7565b5060208201518160010190805190602001906102d9929190610cf7565b5060408201518160020155505080806102f1906115dd565b9150506101d0565b50804261030691906114a6565b600381905550505050565b60035481565b6000818154811061032757600080fd5b906000526020600020906003020160009150905080600001805461034a9061157a565b80601f01602080910402602001604051908101604052809291908181526020018280546103769061157a565b80156103c35780601f10610398576101008083540402835291602001916103c3565b820191906000526020600020905b8154815290600101906020018083116103a657829003601f168201915b5050505050908060010180546103d89061157a565b80601f01602080910402602001604051908101604052809291908181526020018280546104049061157a565b80156104515780601f1061042657610100808354040283529160200191610451565b820191906000526020600020905b81548152906001019060200180831161043457829003601f168201915b5050505050908060020154905083565b600260009054906101000a900473ffffffffffffffffffffffffffffffffffffffff1681565b600260009054906101000a900473ffffffffffffffffffffffffffffffffffffffff1673ffffffffffffffffffffffffffffffffffffffff163373ffffffffffffffffffffffffffffffffffffffff1614610517576040517f08c379a000000000000000000000000000000000000000000000000000000000815260040161050e906112f5565b60405180910390fd5b60005b8251811015610699576001604051806080016040528060001515815260200160008152602001858481518110610579577f4e487b7100000000000000000000000000000000000000000000000000000000600052603260045260246000fd5b602002602001015173ffffffffffffffffffffffffffffffffffffffff1681526020018484815181106105d5577f4e487b7100000000000000000000000000000000000000000000000000000000600052603260045260246000fd5b6020026020010151815250908060018154018082558091505060019003906000526020600020906004020160009091909190915060008201518160000160006101000a81548160ff0219169083151502179055506020820151816001015560408201518160020160006101000a81548173ffffffffffffffffffffffffffffffffffffffff021916908373ffffffffffffffffffffffffffffffffffffffff1602179055506060820151816003015550508080610691906115dd565b91505061051a565b505050565b6000600260009054906101000a900473ffffffffffffffffffffffffffffffffffffffff1673ffffffffffffffffffffffffffffffffffffffff163373ffffffffffffffffffffffffffffffffffffffff161461073e574260035410610739576040517f08c379a000000000000000000000000000000000000000000000000000000000815260040161073090611375565b60405180910390fd5b61080a565b6000805b60008054905081101561080757816000828154811061078a577f4e487b7100000000000000000000000000000000000000000000000000000000600052603260045260246000fd5b90600052602060002090600302016002015411156107f457600081815481106107dc577f4e487b7100000000000000000000000000000000000000000000000000000000600052603260045260246000fd5b90600052602060002090600302016002015491508092505b80806107ff906115dd565b915050610742565b50505b90565b606080600061081a61069e565b81548110610851577f4e487b7100000000000000000000000000000000000000000000000000000000600052603260045260246000fd5b9060005260206000209060030201600001805461086d9061157a565b80601f01602080910402602001604051908101604052809291908181526020018280546108999061157a565b80156108e65780601f106108bb576101008083540402835291602001916108e6565b820191906000526020600020905b8154815290600101906020018083116108c957829003601f168201915b5050505050915060006108f761069e565b8154811061092e577f4e487b7100000000000000000000000000000000000000000000000000000000600052603260045260246000fd5b9060005260206000209060030201600101805461094a9061157a565b80601f01602080910402602001604051908101604052809291908181526020018280546109769061157a565b80156109c35780601f10610998576101008083540402835291602001916109c3565b820191906000526020600020905b8154815290600101906020018083116109a657829003601f168201915b505050505090509091565b8173ffffffffffffffffffffffffffffffffffffffff163373ffffffffffffffffffffffffffffffffffffffff1614610a3c576040517f08c379a0000000000000000000000000000000000000000000000000000000008152600401610a3390611355565b60405180910390fd5b4260035411610a80576040517f08c379a0000000000000000000000000000000000000000000000000000000008152600401610a7790611335565b60405180910390fd5b60005b600180549050811015610cf2578273ffffffffffffffffffffffffffffffffffffffff1660018281548110610ae1577f4e487b7100000000000000000000000000000000000000000000000000000000600052603260045260246000fd5b906000526020600020906004020160020160009054906101000a900473ffffffffffffffffffffffffffffffffffffffff1673ffffffffffffffffffffffffffffffffffffffff161415610cdf5760018181548110610b69577f4e487b7100000000000000000000000000000000000000000000000000000000600052603260045260246000fd5b906000526020600020906004020160000160009054906101000a900460ff1615610bc8576040517f08c379a0000000000000000000000000000000000000000000000000000000008152600401610bbf90611315565b60405180910390fd5b6001808281548110610c03577f4e487b7100000000000000000000000000000000000000000000000000000000600052603260045260246000fd5b906000526020600020906004020160000160006101000a81548160ff0219169083151502179055508160018281548110610c66577f4e487b7100000000000000000000000000000000000000000000000000000000600052603260045260246000fd5b906000526020600020906004020160010181905550600160008381548110610cb7577f4e487b7100000000000000000000000000000000000000000000000000000000600052603260045260246000fd5b90600052602060002090600302016002016000828254610cd791906114a6565b925050819055505b8080610cea906115dd565b915050610a83565b505050565b828054610d039061157a565b90600052602060002090601f016020900481019282610d255760008555610d6c565b82601f10610d3e57805160ff1916838001178555610d6c565b82800160010185558215610d6c579182015b82811115610d6b578251825591602001919060010190610d50565b5b509050610d799190610d7d565b5090565b5b80821115610d96576000816000905550600101610d7e565b5090565b6000610dad610da8846113d5565b6113b0565b90508083825260208201905082856020860282011115610dcc57600080fd5b60005b85811015610dfc5781610de28882610f36565b845260208401935060208301925050600181019050610dcf565b5050509392505050565b6000610e19610e1484611401565b6113b0565b90508083825260208201905082856020860282011115610e3857600080fd5b60005b85811015610e8257813567ffffffffffffffff811115610e5a57600080fd5b808601610e678982610fc9565b85526020850194506020840193505050600181019050610e3b565b5050509392505050565b6000610e9f610e9a8461142d565b6113b0565b90508083825260208201905082856020860282011115610ebe57600080fd5b60005b85811015610eee5781610ed48882610ff3565b845260208401935060208301925050600181019050610ec1565b5050509392505050565b6000610f0b610f0684611459565b6113b0565b905082815260208101848484011115610f2357600080fd5b610f2e848285611538565b509392505050565b600081359050610f45816117dd565b92915050565b600082601f830112610f5c57600080fd5b8135610f6c848260208601610d9a565b91505092915050565b600082601f830112610f8657600080fd5b8135610f96848260208601610e06565b91505092915050565b600082601f830112610fb057600080fd5b8135610fc0848260208601610e8c565b91505092915050565b600082601f830112610fda57600080fd5b8135610fea848260208601610ef8565b91505092915050565b600081359050611002816117f4565b92915050565b6000806040838503121561101b57600080fd5b600061102985828601610f36565b925050602061103a85828601610ff3565b9150509250929050565b6000806040838503121561105757600080fd5b600083013567ffffffffffffffff81111561107157600080fd5b61107d85828601610f4b565b925050602083013567ffffffffffffffff81111561109a57600080fd5b6110a685828601610f9f565b9150509250929050565b6000806000606084860312156110c557600080fd5b600084013567ffffffffffffffff8111156110df57600080fd5b6110eb86828701610f75565b935050602084013567ffffffffffffffff81111561110857600080fd5b61111486828701610f75565b925050604061112586828701610ff3565b9150509250925092565b60006020828403121561114157600080fd5b600061114f84828501610ff3565b91505092915050565b611161816114fc565b82525050565b60006111728261148a565b61117c8185611495565b935061118c818560208601611547565b611195816116b3565b840191505092915050565b60006111ad603283611495565b91506111b8826116c4565b604082019050919050565b60006111d0600d83611495565b91506111db82611713565b602082019050919050565b60006111f3601083611495565b91506111fe8261173c565b602082019050919050565b6000611216601d83611495565b915061122182611765565b602082019050919050565b6000611239602983611495565b91506112448261178e565b604082019050919050565b6112588161152e565b82525050565b60006020820190506112736000830184611158565b92915050565b600060408201905081810360008301526112938185611167565b905081810360208301526112a78184611167565b90509392505050565b600060608201905081810360008301526112ca8186611167565b905081810360208301526112de8185611167565b90506112ed604083018461124f565b949350505050565b6000602082019050818103600083015261130e816111a0565b9050919050565b6000602082019050818103600083015261132e816111c3565b9050919050565b6000602082019050818103600083015261134e816111e6565b9050919050565b6000602082019050818103600083015261136e81611209565b9050919050565b6000602082019050818103600083015261138e8161122c565b9050919050565b60006020820190506113aa600083018461124f565b92915050565b60006113ba6113cb565b90506113c682826115ac565b919050565b6000604051905090565b600067ffffffffffffffff8211156113f0576113ef611684565b5b602082029050602081019050919050565b600067ffffffffffffffff82111561141c5761141b611684565b5b602082029050602081019050919050565b600067ffffffffffffffff82111561144857611447611684565b5b602082029050602081019050919050565b600067ffffffffffffffff82111561147457611473611684565b5b61147d826116b3565b9050602081019050919050565b600081519050919050565b600082825260208201905092915050565b60006114b18261152e565b91506114bc8361152e565b9250827fffffffffffffffffffffffffffffffffffffffffffffffffffffffffffffffff038211156114f1576114f0611626565b5b828201905092915050565b60006115078261150e565b9050919050565b600073ffffffffffffffffffffffffffffffffffffffff82169050919050565b6000819050919050565b82818337600083830152505050565b60005b8381101561156557808201518184015260208101905061154a565b83811115611574576000848401525b50505050565b6000600282049050600182168061159257607f821691505b602082108114156115a6576115a5611655565b5b50919050565b6115b5826116b3565b810181811067ffffffffffffffff821117156115d4576115d3611684565b5b80604052505050565b60006115e88261152e565b91507fffffffffffffffffffffffffffffffffffffffffffffffffffffffffffffffff82141561161b5761161a611626565b5b600182019050919050565b7f4e487b7100000000000000000000000000000000000000000000000000000000600052601160045260246000fd5b7f4e487b7100000000000000000000000000000000000000000000000000000000600052602260045260246000fd5b7f4e487b7100000000000000000000000000000000000000000000000000000000600052604160045260246000fd5b6000601f19601f8301169050919050565b7f4f6e6c7920656c656374696f6e20636f6d6d697373696f6e65722063616e206760008201527f6976652072696768747320746f20766f74650000000000000000000000000000602082015250565b7f416c726561647920766f74656400000000000000000000000000000000000000600082015250565b7f566f74696e672068617320656e64656400000000000000000000000000000000600082015250565b7f496e636f7272656374207472616e73616374696e672061646472657373000000600082015250565b7f596f752063616e20636865636b207468652077696e6e6572207768656e20766f60008201527f74696e6720656e64730000000000000000000000000000000000000000000000602082015250565b6117e6816114fc565b81146117f157600080fd5b50565b6117fd8161152e565b811461180857600080fd5b5056fea2646970667358221220b4103fd71ec89b1933a45c0db2f54e42d540dae492b6dd7cbd8e94bd2ffa0f1a64736f6c63430008040033",
  "immutableReferences": {},
  "source": "// SPDX-License-Identifier: MIT\npragma solidity >= 0.8.0 <0.9.0;\n\ncontract voting{\n\n    ///custom data type to collect details of candidates\n    struct candidateDetails{ \n        string name;\n        string vyingPosition;\n        uint voteCount;\n    }\n\n    ///same as above, collecting details of voters\n    struct Voter{ \n        bool voted;\n        uint vote; ///index of the candidate a voter votes for\n        address voterAddress; \n        uint studentId; \n    }\n    \n\n    /*public array of data type 'candidateDetails' to\n    take more than one candidate when necessary*/\n\n    candidateDetails[] public _candidates; \n\n    Voter[] internal allowedVoters; ///array of voters allowed to vote\n\n    //mapping(address => Voter) public voters;\n    \n    address public electionOfficer; ///declaring address of person who calls poll creation contract\n    \n    uint public expireTime;\n\n\n    /*constructor takes to sets of array stored in memory to record \n    the details of the various candidates and whatever position the \n    candidate is vies for*/\n\n    function createPoll(string[] memory candidateInfo, string[] memory position, uint _timeLimit) public {\n        electionOfficer = msg.sender;\n        \n        for(uint i = 0; i < candidateInfo.length; i++){\n            _candidates.push(candidateDetails({\n                name: candidateInfo[i],\n                vyingPosition: position[i],\n                voteCount: 0\n            }));\n\n        }\n        \n        expireTime = block.timestamp + _timeLimit;\n\n\n    }\n    \n    \n    /*\n    approvedVoters function takes addresses and student Ids of people(students) who the ballot\n    creator(electionOfficer) wants to participate in the election\n    */\n    function approveVoters(address[] memory _voter, uint[] memory _studentId) public{\n        require(msg.sender == electionOfficer, \n        \"Only election commissioner can give rights to vote\");\n\n        for(uint j = 0; j < _voter.length; j++){\n            \n            allowedVoters.push(Voter({\n                voterAddress: _voter[j],\n                studentId: _studentId[j],\n                voted: false,\n                vote: 0\n            }));\n        }\n    }\n\n    function castVote(address _address, uint _choice)  public{\n        require(msg.sender == _address, \"Incorrect transacting address\");\n        require(expireTime > block.timestamp, \"Voting has ended\");\n        \n        for(uint k = 0; k < allowedVoters.length; k++){\n            if(allowedVoters[k].voterAddress == _address){\n                require(!allowedVoters[k].voted, \"Already voted\");\n                allowedVoters[k].voted = true;\n                allowedVoters[k].vote = _choice;\n                _candidates[_choice].voteCount += 1;\n            }\n        }\n    }\n    \n    function winningCandidate() public view\n            returns (uint winningCandidate_){\n                \n                if(msg.sender != electionOfficer){\n                    require(expireTime < block.timestamp, \"You can check the winner when voting ends\");\n                \n                }\n                else{\n                    uint winningVoteCount = 0;\n                    \n                        for (uint p = 0; p < _candidates.length; p++) {\n                            if (_candidates[p].voteCount > winningVoteCount) {\n                                winningVoteCount = _candidates[p].voteCount;\n                                winningCandidate_ = p;\n                            }\n                        }\n                    }\n    }\n\n    /** \n     * @dev Calls winningProposal() function to get the index of the winner contained in the proposals array and then\n     * @return winnerName_ the name of the winner\n     * @return vyingPosition_ the position of the winner\n     */\n    function winnerName() public view\n            returns (string memory winnerName_, string memory vyingPosition_){\n        winnerName_ = _candidates[winningCandidate()].name;\n        vyingPosition_ = _candidates[winningCandidate()].vyingPosition;\n    }\n\n}",
  "sourcePath": "/home/jayus/Desktop/voting/voting/voting/contracts/voting.sol",
  "compiler": {
    "name": "solc",
    "version": "0.8.4+commit.c7e474f2.Emscripten.clang"
  },
  "schemaVersion": "3.4.1",
  "updatedAt": "2021-07-20T13:40:18.951Z",
  "networkType": "ethereum",
  "devdoc": {
    "kind": "dev",
    "methods": {
      "winnerName()": {
        "details": "Calls winningProposal() function to get the index of the winner contained in the proposals array and then",
        "returns": {
          "vyingPosition_": "the position of the winner",
          "winnerName_": "the name of the winner"
        }
      }
    },
    "version": 1
  },
  "userdoc": {
    "kind": "user",
    "methods": {
      "electionOfficer()": {
        "notice": "array of voters allowed to vote"
      },
      "expireTime()": {
        "notice": "declaring address of person who calls poll creation contract"
      }
    },
    "version": 1
  }
}