{
  "contractName": "voting",
  "abi": [
    {
      "inputs": [
        {
          "internalType": "uint256",
          "name": "",
          "type": "uint256"
        }
      ],
      "name": "_candidates",
      "outputs": [
        {
          "internalType": "bytes32",
          "name": "name",
          "type": "bytes32"
        },
        {
          "internalType": "bytes32",
          "name": "vyingPosition",
          "type": "bytes32"
        },
        {
          "internalType": "uint256",
          "name": "voteCount",
          "type": "uint256"
        }
      ],
      "stateMutability": "view",
      "type": "function",
      "constant": true
    },
    {
      "inputs": [],
      "name": "electionOfficer",
      "outputs": [
        {
          "internalType": "address",
          "name": "",
          "type": "address"
        }
      ],
      "stateMutability": "view",
      "type": "function",
      "constant": true
    },
    {
      "inputs": [],
      "name": "expireTime",
      "outputs": [
        {
          "internalType": "uint256",
          "name": "",
          "type": "uint256"
        }
      ],
      "stateMutability": "view",
      "type": "function",
      "constant": true
    },
    {
      "inputs": [
        {
          "internalType": "bytes32[]",
          "name": "candidateInfo",
          "type": "bytes32[]"
        },
        {
          "internalType": "bytes32[]",
          "name": "position",
          "type": "bytes32[]"
        },
        {
          "internalType": "uint256",
          "name": "_timeLimit",
          "type": "uint256"
        }
      ],
      "name": "createPoll",
      "outputs": [],
      "stateMutability": "nonpayable",
      "type": "function"
    },
    {
      "inputs": [
        {
          "internalType": "address[]",
          "name": "_voter",
          "type": "address[]"
        },
        {
          "internalType": "uint256[]",
          "name": "_studentId",
          "type": "uint256[]"
        }
      ],
      "name": "approveVoters",
      "outputs": [],
      "stateMutability": "nonpayable",
      "type": "function"
    },
    {
      "inputs": [
        {
          "internalType": "address",
          "name": "_address",
          "type": "address"
        },
        {
          "internalType": "uint256",
          "name": "_choice",
          "type": "uint256"
        }
      ],
      "name": "castVote",
      "outputs": [],
      "stateMutability": "nonpayable",
      "type": "function"
    },
    {
      "inputs": [],
      "name": "winningCandidate",
      "outputs": [
        {
          "internalType": "uint256",
          "name": "winningCandidate_",
          "type": "uint256"
        }
      ],
      "stateMutability": "view",
      "type": "function",
      "constant": true
    },
    {
      "inputs": [],
      "name": "winnerName",
      "outputs": [
        {
          "internalType": "bytes32",
          "name": "winnerName_",
          "type": "bytes32"
        },
        {
          "internalType": "bytes32",
          "name": "vyingPosition_",
          "type": "bytes32"
        }
      ],
      "stateMutability": "view",
      "type": "function",
      "constant": true
    }
  ],
  "bytecode": "0x608060405234801561001057600080fd5b506113e7806100206000396000f3fe608060405234801561001057600080fd5b50600436106100885760003560e01c8063b9af3a4f1161005b578063b9af3a4f14610117578063d28178d714610133578063e2ba53f014610151578063ff91bb451461017057610088565b8063213316aa1461008d578063310a1ee3146100a9578063648a305a146100c7578063a215059c146100f9575b600080fd5b6100a760048036038101906100a29190610d5a565b61018c565b005b6100b16102eb565b6040516100be9190610ff9565b60405180910390f35b6100e160048036038101906100dc9190610dd9565b6102f1565b6040516100f093929190610f22565b60405180910390f35b61010161032b565b60405161010e9190610ede565b60405180910390f35b610131600480360381019061012c9190610cee565b610351565b005b61013b610568565b6040516101489190610ff9565b60405180910390f35b6101596106d7565b604051610167929190610ef9565b60405180910390f35b61018a60048036038101906101859190610cb2565b610788565b005b33600260006101000a81548173ffffffffffffffffffffffffffffffffffffffff021916908373ffffffffffffffffffffffffffffffffffffffff16021790555060005b83518110156102d3576000604051806060016040528086848151811061021f577f4e487b7100000000000000000000000000000000000000000000000000000000600052603260045260246000fd5b60200260200101518152602001858481518110610265577f4e487b7100000000000000000000000000000000000000000000000000000000600052603260045260246000fd5b6020026020010151815260200160008152509080600181540180825580915050600190039060005260206000209060030201600090919091909150600082015181600001556020820151816001015560408201518160020155505080806102cb9061119b565b9150506101d0565b5080426102e091906110ce565b600381905550505050565b60035481565b6000818154811061030157600080fd5b90600052602060002090600302016000915090508060000154908060010154908060020154905083565b600260009054906101000a900473ffffffffffffffffffffffffffffffffffffffff1681565b600260009054906101000a900473ffffffffffffffffffffffffffffffffffffffff1673ffffffffffffffffffffffffffffffffffffffff163373ffffffffffffffffffffffffffffffffffffffff16146103e1576040517f08c379a00000000000000000000000000000000000000000000000000000000081526004016103d890610f59565b60405180910390fd5b60005b8251811015610563576001604051806080016040528060001515815260200160008152602001858481518110610443577f4e487b7100000000000000000000000000000000000000000000000000000000600052603260045260246000fd5b602002602001015173ffffffffffffffffffffffffffffffffffffffff16815260200184848151811061049f577f4e487b7100000000000000000000000000000000000000000000000000000000600052603260045260246000fd5b6020026020010151815250908060018154018082558091505060019003906000526020600020906004020160009091909190915060008201518160000160006101000a81548160ff0219169083151502179055506020820151816001015560408201518160020160006101000a81548173ffffffffffffffffffffffffffffffffffffffff021916908373ffffffffffffffffffffffffffffffffffffffff160217905550606082015181600301555050808061055b9061119b565b9150506103e4565b505050565b6000600260009054906101000a900473ffffffffffffffffffffffffffffffffffffffff1673ffffffffffffffffffffffffffffffffffffffff163373ffffffffffffffffffffffffffffffffffffffff1614610608574260035410610603576040517f08c379a00000000000000000000000000000000000000000000000000000000081526004016105fa90610fd9565b60405180910390fd5b6106d4565b6000805b6000805490508110156106d1578160008281548110610654577f4e487b7100000000000000000000000000000000000000000000000000000000600052603260045260246000fd5b90600052602060002090600302016002015411156106be57600081815481106106a6577f4e487b7100000000000000000000000000000000000000000000000000000000600052603260045260246000fd5b90600052602060002090600302016002015491508092505b80806106c99061119b565b91505061060c565b50505b90565b60008060006106e4610568565b8154811061071b577f4e487b7100000000000000000000000000000000000000000000000000000000600052603260045260246000fd5b90600052602060002090600302016000015491506000610739610568565b81548110610770577f4e487b7100000000000000000000000000000000000000000000000000000000600052603260045260246000fd5b90600052602060002090600302016001015490509091565b8173ffffffffffffffffffffffffffffffffffffffff163373ffffffffffffffffffffffffffffffffffffffff16146107f6576040517f08c379a00000000000000000000000000000000000000000000000000000000081526004016107ed90610fb9565b60405180910390fd5b426003541161083a576040517f08c379a000000000000000000000000000000000000000000000000000000000815260040161083190610f99565b60405180910390fd5b60005b600180549050811015610aac578273ffffffffffffffffffffffffffffffffffffffff166001828154811061089b577f4e487b7100000000000000000000000000000000000000000000000000000000600052603260045260246000fd5b906000526020600020906004020160020160009054906101000a900473ffffffffffffffffffffffffffffffffffffffff1673ffffffffffffffffffffffffffffffffffffffff161415610a995760018181548110610923577f4e487b7100000000000000000000000000000000000000000000000000000000600052603260045260246000fd5b906000526020600020906004020160000160009054906101000a900460ff1615610982576040517f08c379a000000000000000000000000000000000000000000000000000000000815260040161097990610f79565b60405180910390fd5b60018082815481106109bd577f4e487b7100000000000000000000000000000000000000000000000000000000600052603260045260246000fd5b906000526020600020906004020160000160006101000a81548160ff0219169083151502179055508160018281548110610a20577f4e487b7100000000000000000000000000000000000000000000000000000000600052603260045260246000fd5b906000526020600020906004020160010181905550600160008381548110610a71577f4e487b7100000000000000000000000000000000000000000000000000000000600052603260045260246000fd5b90600052602060002090600302016002016000828254610a9191906110ce565b925050819055505b8080610aa49061119b565b91505061083d565b505050565b6000610ac4610abf84611039565b611014565b90508083825260208201905082856020860282011115610ae357600080fd5b60005b85811015610b135781610af98882610bf5565b845260208401935060208301925050600181019050610ae6565b5050509392505050565b6000610b30610b2b84611065565b611014565b90508083825260208201905082856020860282011115610b4f57600080fd5b60005b85811015610b7f5781610b658882610c88565b845260208401935060208301925050600181019050610b52565b5050509392505050565b6000610b9c610b9784611091565b611014565b90508083825260208201905082856020860282011115610bbb57600080fd5b60005b85811015610beb5781610bd18882610c9d565b845260208401935060208301925050600181019050610bbe565b5050509392505050565b600081359050610c048161136c565b92915050565b600082601f830112610c1b57600080fd5b8135610c2b848260208601610ab1565b91505092915050565b600082601f830112610c4557600080fd5b8135610c55848260208601610b1d565b91505092915050565b600082601f830112610c6f57600080fd5b8135610c7f848260208601610b89565b91505092915050565b600081359050610c9781611383565b92915050565b600081359050610cac8161139a565b92915050565b60008060408385031215610cc557600080fd5b6000610cd385828601610bf5565b9250506020610ce485828601610c9d565b9150509250929050565b60008060408385031215610d0157600080fd5b600083013567ffffffffffffffff811115610d1b57600080fd5b610d2785828601610c0a565b925050602083013567ffffffffffffffff811115610d4457600080fd5b610d5085828601610c5e565b9150509250929050565b600080600060608486031215610d6f57600080fd5b600084013567ffffffffffffffff811115610d8957600080fd5b610d9586828701610c34565b935050602084013567ffffffffffffffff811115610db257600080fd5b610dbe86828701610c34565b9250506040610dcf86828701610c9d565b9150509250925092565b600060208284031215610deb57600080fd5b6000610df984828501610c9d565b91505092915050565b610e0b81611124565b82525050565b610e1a81611136565b82525050565b6000610e2d6032836110bd565b9150610e3882611253565b604082019050919050565b6000610e50600d836110bd565b9150610e5b826112a2565b602082019050919050565b6000610e736010836110bd565b9150610e7e826112cb565b602082019050919050565b6000610e96601d836110bd565b9150610ea1826112f4565b602082019050919050565b6000610eb96029836110bd565b9150610ec48261131d565b604082019050919050565b610ed881611160565b82525050565b6000602082019050610ef36000830184610e02565b92915050565b6000604082019050610f0e6000830185610e11565b610f1b6020830184610e11565b9392505050565b6000606082019050610f376000830186610e11565b610f446020830185610e11565b610f516040830184610ecf565b949350505050565b60006020820190508181036000830152610f7281610e20565b9050919050565b60006020820190508181036000830152610f9281610e43565b9050919050565b60006020820190508181036000830152610fb281610e66565b9050919050565b60006020820190508181036000830152610fd281610e89565b9050919050565b60006020820190508181036000830152610ff281610eac565b9050919050565b600060208201905061100e6000830184610ecf565b92915050565b600061101e61102f565b905061102a828261116a565b919050565b6000604051905090565b600067ffffffffffffffff82111561105457611053611213565b5b602082029050602081019050919050565b600067ffffffffffffffff8211156110805761107f611213565b5b602082029050602081019050919050565b600067ffffffffffffffff8211156110ac576110ab611213565b5b602082029050602081019050919050565b600082825260208201905092915050565b60006110d982611160565b91506110e483611160565b9250827fffffffffffffffffffffffffffffffffffffffffffffffffffffffffffffffff03821115611119576111186111e4565b5b828201905092915050565b600061112f82611140565b9050919050565b6000819050919050565b600073ffffffffffffffffffffffffffffffffffffffff82169050919050565b6000819050919050565b61117382611242565b810181811067ffffffffffffffff8211171561119257611191611213565b5b80604052505050565b60006111a682611160565b91507fffffffffffffffffffffffffffffffffffffffffffffffffffffffffffffffff8214156111d9576111d86111e4565b5b600182019050919050565b7f4e487b7100000000000000000000000000000000000000000000000000000000600052601160045260246000fd5b7f4e487b7100000000000000000000000000000000000000000000000000000000600052604160045260246000fd5b6000601f19601f8301169050919050565b7f4f6e6c7920656c656374696f6e20636f6d6d697373696f6e65722063616e206760008201527f6976652072696768747320746f20766f74650000000000000000000000000000602082015250565b7f416c726561647920766f74656400000000000000000000000000000000000000600082015250565b7f566f74696e672068617320656e64656400000000000000000000000000000000600082015250565b7f496e636f7272656374207472616e73616374696e672061646472657373000000600082015250565b7f596f752063616e20636865636b207468652077696e6e6572207768656e20766f60008201527f74696e6720656e64730000000000000000000000000000000000000000000000602082015250565b61137581611124565b811461138057600080fd5b50565b61138c81611136565b811461139757600080fd5b50565b6113a381611160565b81146113ae57600080fd5b5056fea264697066735822122064f3b4c150046df64828d2705bba57ad0753557b05a091623db46bba7788a0a264736f6c63430008040033",
  "immutableReferences": {},
  "source": "// SPDX-License-Identifier: MIT\npragma solidity >= 0.8.0 <0.9.0;\n\ncontract voting{\n\n    ///custom data type to collect details of candidates\n    struct candidateDetails{ \n        bytes32 name;\n        bytes32 vyingPosition;\n        uint voteCount;\n    }\n\n    ///same as above, collecting details of voters\n    struct Voter{ \n        bool voted;\n        uint vote; ///index of the candidate a voter votes for\n        address voterAddress; \n        uint studentId; \n    }\n    \n\n    /*public array of data type 'candidateDetails' to\n    take more than one candidate when necessary*/\n\n    candidateDetails[] public _candidates; \n\n    Voter[] internal allowedVoters; ///array of voters allowed to vote\n\n    //mapping(address => Voter) public voters;\n    \n    address public electionOfficer; ///declaring address of person who calls poll creation contract\n    \n    uint public expireTime;\n\n\n    /*constructor takes to sets of array stored in memory to record \n    the details of the various candidates and whatever position the \n    candidate is vies for*/\n\n    function createPoll(bytes32[] memory candidateInfo, bytes32[] memory position, uint _timeLimit) public {\n        electionOfficer = msg.sender;\n        \n        for(uint i = 0; i < candidateInfo.length; i++){\n            _candidates.push(candidateDetails({\n                name: candidateInfo[i],\n                vyingPosition: position[i],\n                voteCount: 0\n            }));\n\n        }\n        \n        expireTime = block.timestamp + _timeLimit; //voting time period\n\n\n    }\n    \n    \n    /*\n    approvedVoters function takes addresses and student Ids of people(students) who the ballot\n    creator(electionOfficer) wants to participate in the election\n    */\n    function approveVoters(address[] memory _voter, uint[] memory _studentId) public{\n        require(msg.sender == electionOfficer, \n        \"Only election commissioner can give rights to vote\");\n\n        for(uint j = 0; j < _voter.length; j++){\n            \n            allowedVoters.push(Voter({\n                voterAddress: _voter[j],\n                studentId: _studentId[j],\n                voted: false,\n                vote: 0\n            }));\n        }\n    }\n\n    function castVote(address _address, uint _choice)  public{\n        require(msg.sender == _address, \"Incorrect transacting address\");\n        require(expireTime > block.timestamp, \"Voting has ended\");\n        \n        for(uint k = 0; k < allowedVoters.length; k++){\n            if(allowedVoters[k].voterAddress == _address){\n                require(!allowedVoters[k].voted, \"Already voted\");\n                allowedVoters[k].voted = true;\n                allowedVoters[k].vote = _choice;\n                _candidates[_choice].voteCount += 1;\n            }\n        }\n    }\n    \n    function winningCandidate() public view\n            returns (uint winningCandidate_){\n                \n                if(msg.sender != electionOfficer){\n                    require(expireTime < block.timestamp, \"You can check the winner when voting ends\");\n                \n                }\n                else{\n                    uint winningVoteCount = 0;\n                    \n                        for (uint p = 0; p < _candidates.length; p++) {\n                            if (_candidates[p].voteCount > winningVoteCount) {\n                                winningVoteCount = _candidates[p].voteCount;\n                                winningCandidate_ = p;\n                            }\n                        }\n                    }\n    }\n\n    /** \n     * @dev Calls winningProposal() function to get the index of the winner contained in the proposals array and then\n     * @return winnerName_ the name of the winner\n     * @return vyingPosition_ the position of the winner\n     */\n    function winnerName() public view\n            returns (bytes32 winnerName_, bytes32 vyingPosition_){\n        winnerName_ = _candidates[winningCandidate()].name;\n        vyingPosition_ = _candidates[winningCandidate()].vyingPosition;\n    }\n\n}",
  "sourcePath": "/home/jayus/Desktop/voting/voting/voting/contracts/voting.sol",
  "compiler": {
    "name": "solc",
    "version": "0.8.4+commit.c7e474f2.Emscripten.clang"
  },
  "schemaVersion": "3.4.1",
  "updatedAt": "2021-07-13T17:23:05.340Z",
  "networkType": "ethereum",
  "devdoc": {
    "kind": "dev",
    "methods": {
      "winnerName()": {
        "details": "Calls winningProposal() function to get the index of the winner contained in the proposals array and then",
        "returns": {
          "vyingPosition_": "the position of the winner",
          "winnerName_": "the name of the winner"
        }
      }
    },
    "version": 1
  },
  "userdoc": {
    "kind": "user",
    "methods": {
      "electionOfficer()": {
        "notice": "array of voters allowed to vote"
      },
      "expireTime()": {
        "notice": "declaring address of person who calls poll creation contract"
      }
    },
    "version": 1
  }
}