{
  "contractName": "voting",
  "abi": [
    {
      "inputs": [
        {
          "internalType": "uint256",
          "name": "",
          "type": "uint256"
        }
      ],
      "name": "_candidates",
      "outputs": [
        {
          "internalType": "string",
          "name": "name",
          "type": "string"
        },
        {
          "internalType": "string",
          "name": "vyingPosition",
          "type": "string"
        },
        {
          "internalType": "uint256",
          "name": "voteCount",
          "type": "uint256"
        }
      ],
      "stateMutability": "view",
      "type": "function",
      "constant": true
    },
    {
      "inputs": [],
      "name": "electionOfficer",
      "outputs": [
        {
          "internalType": "address",
          "name": "",
          "type": "address"
        }
      ],
      "stateMutability": "view",
      "type": "function",
      "constant": true
    },
    {
      "inputs": [],
      "name": "expireTime",
      "outputs": [
        {
          "internalType": "uint256",
          "name": "",
          "type": "uint256"
        }
      ],
      "stateMutability": "view",
      "type": "function",
      "constant": true
    },
    {
      "inputs": [],
      "name": "showCandidates",
      "outputs": [
        {
          "components": [
            {
              "internalType": "string",
              "name": "name",
              "type": "string"
            },
            {
              "internalType": "string",
              "name": "vyingPosition",
              "type": "string"
            },
            {
              "internalType": "uint256",
              "name": "voteCount",
              "type": "uint256"
            }
          ],
          "internalType": "struct voting.candidateDetails[]",
          "name": "",
          "type": "tuple[]"
        }
      ],
      "stateMutability": "view",
      "type": "function",
      "constant": true
    },
    {
      "inputs": [
        {
          "internalType": "string[]",
          "name": "candidateInfo",
          "type": "string[]"
        },
        {
          "internalType": "string[]",
          "name": "position",
          "type": "string[]"
        },
        {
          "internalType": "uint256",
          "name": "_timeLimit",
          "type": "uint256"
        }
      ],
      "name": "createPoll",
      "outputs": [],
      "stateMutability": "nonpayable",
      "type": "function"
    },
    {
      "inputs": [
        {
          "internalType": "address[]",
          "name": "_voter",
          "type": "address[]"
        },
        {
          "internalType": "uint256[]",
          "name": "_studentId",
          "type": "uint256[]"
        }
      ],
      "name": "approveVoters",
      "outputs": [],
      "stateMutability": "nonpayable",
      "type": "function"
    },
    {
      "inputs": [
        {
          "internalType": "address",
          "name": "_address",
          "type": "address"
        },
        {
          "internalType": "uint256",
          "name": "_choice",
          "type": "uint256"
        }
      ],
      "name": "castVote",
      "outputs": [],
      "stateMutability": "nonpayable",
      "type": "function"
    },
    {
      "inputs": [],
      "name": "winningCandidate",
      "outputs": [
        {
          "internalType": "uint256",
          "name": "winningCandidate_",
          "type": "uint256"
        }
      ],
      "stateMutability": "view",
      "type": "function",
      "constant": true
    },
    {
      "inputs": [],
      "name": "winnerName",
      "outputs": [
        {
          "internalType": "string",
          "name": "winnerName_",
          "type": "string"
        },
        {
          "internalType": "string",
          "name": "vyingPosition_",
          "type": "string"
        }
      ],
      "stateMutability": "view",
      "type": "function",
      "constant": true
    }
  ],
  "bytecode": "0x608060405234801561001057600080fd5b50611b8b806100206000396000f3fe608060405234801561001057600080fd5b50600436106100935760003560e01c8063a215059c11610066578063a215059c14610122578063b9af3a4f14610140578063d28178d71461015c578063e2ba53f01461017a578063ff91bb451461019957610093565b80631bab7138146100985780631d7b90e0146100b4578063310a1ee3146100d2578063648a305a146100f0575b600080fd5b6100b260048036038101906100ad9190611266565b6101b5565b005b6100bc61033a565b6040516100c99190611557565b60405180910390f35b6100da6104c7565b6040516100e79190611695565b60405180910390f35b61010a600480360381019061010591906112e5565b6104cd565b604051610119939291906115b0565b60405180910390f35b61012a610617565b604051610137919061153c565b60405180910390f35b61015a600480360381019061015591906111fa565b61063d565b005b610164610854565b6040516101719190611695565b60405180910390f35b6101826109c3565b604051610190929190611579565b60405180910390f35b6101b360048036038101906101ae91906111be565b610b84565b005b33600260006101000a81548173ffffffffffffffffffffffffffffffffffffffff021916908373ffffffffffffffffffffffffffffffffffffffff16021790555060005b83518110156103225760006040518060600160405280868481518110610248577f4e487b7100000000000000000000000000000000000000000000000000000000600052603260045260246000fd5b6020026020010151815260200185848151811061028e577f4e487b7100000000000000000000000000000000000000000000000000000000600052603260045260246000fd5b602002602001015181526020016000815250908060018154018082558091505060019003906000526020600020906003020160009091909190915060008201518160000190805190602001906102e5929190610ead565b506020820151816001019080519060200190610302929190610ead565b50604082015181600201555050808061031a90611927565b9150506101f9565b50804261032f91906117f0565b600381905550505050565b60606000805480602002602001604051908101604052809291908181526020016000905b828210156104be5783829060005260206000209060030201604051806060016040529081600082018054610391906118c4565b80601f01602080910402602001604051908101604052809291908181526020018280546103bd906118c4565b801561040a5780601f106103df5761010080835404028352916020019161040a565b820191906000526020600020905b8154815290600101906020018083116103ed57829003601f168201915b50505050508152602001600182018054610423906118c4565b80601f016020809104026020016040519081016040528092919081815260200182805461044f906118c4565b801561049c5780601f106104715761010080835404028352916020019161049c565b820191906000526020600020905b81548152906001019060200180831161047f57829003601f168201915b505050505081526020016002820154815250508152602001906001019061035e565b50505050905090565b60035481565b600081815481106104dd57600080fd5b9060005260206000209060030201600091509050806000018054610500906118c4565b80601f016020809104026020016040519081016040528092919081815260200182805461052c906118c4565b80156105795780601f1061054e57610100808354040283529160200191610579565b820191906000526020600020905b81548152906001019060200180831161055c57829003601f168201915b50505050509080600101805461058e906118c4565b80601f01602080910402602001604051908101604052809291908181526020018280546105ba906118c4565b80156106075780601f106105dc57610100808354040283529160200191610607565b820191906000526020600020905b8154815290600101906020018083116105ea57829003601f168201915b5050505050908060020154905083565b600260009054906101000a900473ffffffffffffffffffffffffffffffffffffffff1681565b600260009054906101000a900473ffffffffffffffffffffffffffffffffffffffff1673ffffffffffffffffffffffffffffffffffffffff163373ffffffffffffffffffffffffffffffffffffffff16146106cd576040517f08c379a00000000000000000000000000000000000000000000000000000000081526004016106c4906115f5565b60405180910390fd5b60005b825181101561084f57600160405180608001604052806000151581526020016000815260200185848151811061072f577f4e487b7100000000000000000000000000000000000000000000000000000000600052603260045260246000fd5b602002602001015173ffffffffffffffffffffffffffffffffffffffff16815260200184848151811061078b577f4e487b7100000000000000000000000000000000000000000000000000000000600052603260045260246000fd5b6020026020010151815250908060018154018082558091505060019003906000526020600020906004020160009091909190915060008201518160000160006101000a81548160ff0219169083151502179055506020820151816001015560408201518160020160006101000a81548173ffffffffffffffffffffffffffffffffffffffff021916908373ffffffffffffffffffffffffffffffffffffffff160217905550606082015181600301555050808061084790611927565b9150506106d0565b505050565b6000600260009054906101000a900473ffffffffffffffffffffffffffffffffffffffff1673ffffffffffffffffffffffffffffffffffffffff163373ffffffffffffffffffffffffffffffffffffffff16146108f45742600354106108ef576040517f08c379a00000000000000000000000000000000000000000000000000000000081526004016108e690611675565b60405180910390fd5b6109c0565b6000805b6000805490508110156109bd578160008281548110610940577f4e487b7100000000000000000000000000000000000000000000000000000000600052603260045260246000fd5b90600052602060002090600302016002015411156109aa5760008181548110610992577f4e487b7100000000000000000000000000000000000000000000000000000000600052603260045260246000fd5b90600052602060002090600302016002015491508092505b80806109b590611927565b9150506108f8565b50505b90565b60608060006109d0610854565b81548110610a07577f4e487b7100000000000000000000000000000000000000000000000000000000600052603260045260246000fd5b90600052602060002090600302016000018054610a23906118c4565b80601f0160208091040260200160405190810160405280929190818152602001828054610a4f906118c4565b8015610a9c5780601f10610a7157610100808354040283529160200191610a9c565b820191906000526020600020905b815481529060010190602001808311610a7f57829003601f168201915b505050505091506000610aad610854565b81548110610ae4577f4e487b7100000000000000000000000000000000000000000000000000000000600052603260045260246000fd5b90600052602060002090600302016001018054610b00906118c4565b80601f0160208091040260200160405190810160405280929190818152602001828054610b2c906118c4565b8015610b795780601f10610b4e57610100808354040283529160200191610b79565b820191906000526020600020905b815481529060010190602001808311610b5c57829003601f168201915b505050505090509091565b8173ffffffffffffffffffffffffffffffffffffffff163373ffffffffffffffffffffffffffffffffffffffff1614610bf2576040517f08c379a0000000000000000000000000000000000000000000000000000000008152600401610be990611655565b60405180910390fd5b4260035411610c36576040517f08c379a0000000000000000000000000000000000000000000000000000000008152600401610c2d90611635565b60405180910390fd5b60005b600180549050811015610ea8578273ffffffffffffffffffffffffffffffffffffffff1660018281548110610c97577f4e487b7100000000000000000000000000000000000000000000000000000000600052603260045260246000fd5b906000526020600020906004020160020160009054906101000a900473ffffffffffffffffffffffffffffffffffffffff1673ffffffffffffffffffffffffffffffffffffffff161415610e955760018181548110610d1f577f4e487b7100000000000000000000000000000000000000000000000000000000600052603260045260246000fd5b906000526020600020906004020160000160009054906101000a900460ff1615610d7e576040517f08c379a0000000000000000000000000000000000000000000000000000000008152600401610d7590611615565b60405180910390fd5b6001808281548110610db9577f4e487b7100000000000000000000000000000000000000000000000000000000600052603260045260246000fd5b906000526020600020906004020160000160006101000a81548160ff0219169083151502179055508160018281548110610e1c577f4e487b7100000000000000000000000000000000000000000000000000000000600052603260045260246000fd5b906000526020600020906004020160010181905550600160008381548110610e6d577f4e487b7100000000000000000000000000000000000000000000000000000000600052603260045260246000fd5b90600052602060002090600302016002016000828254610e8d91906117f0565b925050819055505b8080610ea090611927565b915050610c39565b505050565b828054610eb9906118c4565b90600052602060002090601f016020900481019282610edb5760008555610f22565b82601f10610ef457805160ff1916838001178555610f22565b82800160010185558215610f22579182015b82811115610f21578251825591602001919060010190610f06565b5b509050610f2f9190610f33565b5090565b5b80821115610f4c576000816000905550600101610f34565b5090565b6000610f63610f5e846116d5565b6116b0565b90508083825260208201905082856020860282011115610f8257600080fd5b60005b85811015610fb25781610f9888826110ec565b845260208401935060208301925050600181019050610f85565b5050509392505050565b6000610fcf610fca84611701565b6116b0565b90508083825260208201905082856020860282011115610fee57600080fd5b60005b8581101561103857813567ffffffffffffffff81111561101057600080fd5b80860161101d898261117f565b85526020850194506020840193505050600181019050610ff1565b5050509392505050565b60006110556110508461172d565b6116b0565b9050808382526020820190508285602086028201111561107457600080fd5b60005b858110156110a4578161108a88826111a9565b845260208401935060208301925050600181019050611077565b5050509392505050565b60006110c16110bc84611759565b6116b0565b9050828152602081018484840111156110d957600080fd5b6110e4848285611882565b509392505050565b6000813590506110fb81611b27565b92915050565b600082601f83011261111257600080fd5b8135611122848260208601610f50565b91505092915050565b600082601f83011261113c57600080fd5b813561114c848260208601610fbc565b91505092915050565b600082601f83011261116657600080fd5b8135611176848260208601611042565b91505092915050565b600082601f83011261119057600080fd5b81356111a08482602086016110ae565b91505092915050565b6000813590506111b881611b3e565b92915050565b600080604083850312156111d157600080fd5b60006111df858286016110ec565b92505060206111f0858286016111a9565b9150509250929050565b6000806040838503121561120d57600080fd5b600083013567ffffffffffffffff81111561122757600080fd5b61123385828601611101565b925050602083013567ffffffffffffffff81111561125057600080fd5b61125c85828601611155565b9150509250929050565b60008060006060848603121561127b57600080fd5b600084013567ffffffffffffffff81111561129557600080fd5b6112a18682870161112b565b935050602084013567ffffffffffffffff8111156112be57600080fd5b6112ca8682870161112b565b92505060406112db868287016111a9565b9150509250925092565b6000602082840312156112f757600080fd5b6000611305848285016111a9565b91505092915050565b600061131a83836114c7565b905092915050565b61132b81611846565b82525050565b600061133c8261179a565b61134681856117bd565b9350836020820285016113588561178a565b8060005b858110156113945784840389528151611375858261130e565b9450611380836117b0565b925060208a0199505060018101905061135c565b50829750879550505050505092915050565b60006113b1826117a5565b6113bb81856117ce565b93506113cb818560208601611891565b6113d4816119fd565b840191505092915050565b60006113ea826117a5565b6113f481856117df565b9350611404818560208601611891565b61140d816119fd565b840191505092915050565b60006114256032836117df565b915061143082611a0e565b604082019050919050565b6000611448600d836117df565b915061145382611a5d565b602082019050919050565b600061146b6010836117df565b915061147682611a86565b602082019050919050565b600061148e601d836117df565b915061149982611aaf565b602082019050919050565b60006114b16029836117df565b91506114bc82611ad8565b604082019050919050565b600060608301600083015184820360008601526114e482826113a6565b915050602083015184820360208601526114fe82826113a6565b9150506040830151611513604086018261151e565b508091505092915050565b61152781611878565b82525050565b61153681611878565b82525050565b60006020820190506115516000830184611322565b92915050565b600060208201905081810360008301526115718184611331565b905092915050565b6000604082019050818103600083015261159381856113df565b905081810360208301526115a781846113df565b90509392505050565b600060608201905081810360008301526115ca81866113df565b905081810360208301526115de81856113df565b90506115ed604083018461152d565b949350505050565b6000602082019050818103600083015261160e81611418565b9050919050565b6000602082019050818103600083015261162e8161143b565b9050919050565b6000602082019050818103600083015261164e8161145e565b9050919050565b6000602082019050818103600083015261166e81611481565b9050919050565b6000602082019050818103600083015261168e816114a4565b9050919050565b60006020820190506116aa600083018461152d565b92915050565b60006116ba6116cb565b90506116c682826118f6565b919050565b6000604051905090565b600067ffffffffffffffff8211156116f0576116ef6119ce565b5b602082029050602081019050919050565b600067ffffffffffffffff82111561171c5761171b6119ce565b5b602082029050602081019050919050565b600067ffffffffffffffff821115611748576117476119ce565b5b602082029050602081019050919050565b600067ffffffffffffffff821115611774576117736119ce565b5b61177d826119fd565b9050602081019050919050565b6000819050602082019050919050565b600081519050919050565b600081519050919050565b6000602082019050919050565b600082825260208201905092915050565b600082825260208201905092915050565b600082825260208201905092915050565b60006117fb82611878565b915061180683611878565b9250827fffffffffffffffffffffffffffffffffffffffffffffffffffffffffffffffff0382111561183b5761183a611970565b5b828201905092915050565b600061185182611858565b9050919050565b600073ffffffffffffffffffffffffffffffffffffffff82169050919050565b6000819050919050565b82818337600083830152505050565b60005b838110156118af578082015181840152602081019050611894565b838111156118be576000848401525b50505050565b600060028204905060018216806118dc57607f821691505b602082108114156118f0576118ef61199f565b5b50919050565b6118ff826119fd565b810181811067ffffffffffffffff8211171561191e5761191d6119ce565b5b80604052505050565b600061193282611878565b91507fffffffffffffffffffffffffffffffffffffffffffffffffffffffffffffffff82141561196557611964611970565b5b600182019050919050565b7f4e487b7100000000000000000000000000000000000000000000000000000000600052601160045260246000fd5b7f4e487b7100000000000000000000000000000000000000000000000000000000600052602260045260246000fd5b7f4e487b7100000000000000000000000000000000000000000000000000000000600052604160045260246000fd5b6000601f19601f8301169050919050565b7f4f6e6c7920656c656374696f6e20636f6d6d697373696f6e65722063616e206760008201527f6976652072696768747320746f20766f74650000000000000000000000000000602082015250565b7f416c726561647920766f74656400000000000000000000000000000000000000600082015250565b7f566f74696e672068617320656e64656400000000000000000000000000000000600082015250565b7f496e636f7272656374207472616e73616374696e672061646472657373000000600082015250565b7f596f752063616e20636865636b207468652077696e6e6572207768656e20766f60008201527f74696e6720656e64730000000000000000000000000000000000000000000000602082015250565b611b3081611846565b8114611b3b57600080fd5b50565b611b4781611878565b8114611b5257600080fd5b5056fea26469706673582212204d8ccc100c21d6b4f829fc97ab59d20dd8292d423802fb61473e8417d48842ce64736f6c63430008040033",
  "immutableReferences": {},
  "source": "// SPDX-License-Identifier: MIT\npragma solidity >= 0.8.0 <0.9.0;\n\ncontract voting{\n\n    ///custom data type to collect details of candidates\n    struct candidateDetails{ \n        string name;\n        string vyingPosition;\n        uint voteCount;\n    }\n\n    ///same as above, collecting details of voters\n    struct Voter{ \n        bool voted;\n        uint vote; ///index of the candidate a voter votes for\n        address voterAddress; \n        uint studentId; \n    }\n    \n\n    /*public array of data type 'candidateDetails' to\n    take more than one candidate when necessary*/\n\n    candidateDetails[] public _candidates; \n\n    Voter[] internal allowedVoters; ///array of voters allowed to vote\n\n    //mapping(address => Voter) public voters;\n    \n    address public electionOfficer; ///declaring address of person who calls poll creation contract\n    \n    uint public expireTime;\n    \n    /// display the candidates\n    function showCandidates() public view returns (candidateDetails[] memory){\n        return _candidates;\n    }\n\n    /*constructor takes to sets of array stored in memory to record \n    the details of the various candidates and whatever position the \n    candidate is vies for*/\n\n    function createPoll(string[] memory candidateInfo, string[] memory position, uint _timeLimit) public {\n        electionOfficer = msg.sender;\n        \n        for(uint i = 0; i < candidateInfo.length; i++){\n            _candidates.push(candidateDetails({\n                name: candidateInfo[i],\n                vyingPosition: position[i],\n                voteCount: 0\n            }));\n\n        }\n        \n        expireTime = block.timestamp + _timeLimit;\n\n\n    }\n    \n    \n    /*\n    approvedVoters function takes addresses and student Ids of people(students) who the ballot\n    creator(electionOfficer) wants to participate in the election\n    */\n    function approveVoters(address[] memory _voter, uint[] memory _studentId) public{\n        require(msg.sender == electionOfficer, \n        \"Only election commissioner can give rights to vote\");\n\n        for(uint j = 0; j < _voter.length; j++){\n            \n            allowedVoters.push(Voter({\n                voterAddress: _voter[j],\n                studentId: _studentId[j],\n                voted: false,\n                vote: 0\n            }));\n        }\n    }\n\n    function castVote(address _address, uint _choice)  public{\n        require(msg.sender == _address, \"Incorrect transacting address\");\n        require(expireTime > block.timestamp, \"Voting has ended\");\n        \n        for(uint k = 0; k < allowedVoters.length; k++){\n            if(allowedVoters[k].voterAddress == _address){\n                require(!allowedVoters[k].voted, \"Already voted\");\n                allowedVoters[k].voted = true;\n                allowedVoters[k].vote = _choice;\n                _candidates[_choice].voteCount += 1;\n            }\n        }\n    }\n    \n    function winningCandidate() public view\n            returns (uint winningCandidate_){\n                \n                if(msg.sender != electionOfficer){\n                    require(expireTime < block.timestamp, \"You can check the winner when voting ends\");\n                \n                }\n                else{\n                    uint winningVoteCount = 0;\n                    \n                        for (uint p = 0; p < _candidates.length; p++) {\n                            if (_candidates[p].voteCount > winningVoteCount) {\n                                winningVoteCount = _candidates[p].voteCount;\n                                winningCandidate_ = p;\n                            }\n                        }\n                    }\n    }\n\n    /** \n     * @dev Calls winningProposal() function to get the index of the winner contained in the proposals array and then\n     * @return winnerName_ the name of the winner\n     * @return vyingPosition_ the position of the winner\n     */\n    function winnerName() public view\n            returns (string memory winnerName_, string memory vyingPosition_){\n        winnerName_ = _candidates[winningCandidate()].name;\n        vyingPosition_ = _candidates[winningCandidate()].vyingPosition;\n    }\n\n}",
  "sourcePath": "/home/jayus/Desktop/voting/voting/voting/contracts/voting.sol",
  "compiler": {
    "name": "solc",
    "version": "0.8.4+commit.c7e474f2.Emscripten.clang"
  },
  "schemaVersion": "3.4.1",
  "updatedAt": "2021-07-27T14:01:10.628Z",
  "networkType": "ethereum",
  "devdoc": {
    "kind": "dev",
    "methods": {
      "winnerName()": {
        "details": "Calls winningProposal() function to get the index of the winner contained in the proposals array and then",
        "returns": {
          "vyingPosition_": "the position of the winner",
          "winnerName_": "the name of the winner"
        }
      }
    },
    "version": 1
  },
  "userdoc": {
    "kind": "user",
    "methods": {
      "electionOfficer()": {
        "notice": "array of voters allowed to vote"
      },
      "expireTime()": {
        "notice": "declaring address of person who calls poll creation contract"
      },
      "showCandidates()": {
        "notice": "display the candidates"
      }
    },
    "version": 1
  }
}