{
  "contractName": "voting",
  "abi": [
    {
      "inputs": [
        {
          "internalType": "uint256",
          "name": "",
          "type": "uint256"
        }
      ],
      "name": "_candidates",
      "outputs": [
        {
          "internalType": "string",
          "name": "name",
          "type": "string"
        },
        {
          "internalType": "string",
          "name": "vyingPosition",
          "type": "string"
        },
        {
          "internalType": "uint256",
          "name": "voteCount",
          "type": "uint256"
        }
      ],
      "stateMutability": "view",
      "type": "function",
      "constant": true
    },
    {
      "inputs": [],
      "name": "electionOfficer",
      "outputs": [
        {
          "internalType": "address",
          "name": "",
          "type": "address"
        }
      ],
      "stateMutability": "view",
      "type": "function",
      "constant": true
    },
    {
      "inputs": [],
      "name": "expireTime",
      "outputs": [
        {
          "internalType": "uint256",
          "name": "",
          "type": "uint256"
        }
      ],
      "stateMutability": "view",
      "type": "function",
      "constant": true
    },
    {
      "inputs": [],
      "name": "showCandidates",
      "outputs": [
        {
          "components": [
            {
              "internalType": "string",
              "name": "name",
              "type": "string"
            },
            {
              "internalType": "string",
              "name": "vyingPosition",
              "type": "string"
            },
            {
              "internalType": "uint256",
              "name": "voteCount",
              "type": "uint256"
            }
          ],
          "internalType": "struct voting.candidateDetails[]",
          "name": "",
          "type": "tuple[]"
        }
      ],
      "stateMutability": "view",
      "type": "function",
      "constant": true
    },
    {
      "inputs": [],
      "name": "showAllowed",
      "outputs": [
        {
          "components": [
            {
              "internalType": "bool",
              "name": "voted",
              "type": "bool"
            },
            {
              "internalType": "uint256",
              "name": "vote",
              "type": "uint256"
            },
            {
              "internalType": "address",
              "name": "voterAddress",
              "type": "address"
            },
            {
              "internalType": "uint256",
              "name": "studentId",
              "type": "uint256"
            }
          ],
          "internalType": "struct voting.Voter[]",
          "name": "",
          "type": "tuple[]"
        }
      ],
      "stateMutability": "view",
      "type": "function",
      "constant": true
    },
    {
      "inputs": [
        {
          "internalType": "string[]",
          "name": "candidateInfo",
          "type": "string[]"
        },
        {
          "internalType": "string[]",
          "name": "position",
          "type": "string[]"
        },
        {
          "internalType": "uint256",
          "name": "_timeLimit",
          "type": "uint256"
        }
      ],
      "name": "createPoll",
      "outputs": [],
      "stateMutability": "nonpayable",
      "type": "function"
    },
    {
      "inputs": [
        {
          "internalType": "address[]",
          "name": "_voter",
          "type": "address[]"
        },
        {
          "internalType": "uint256[]",
          "name": "_studentId",
          "type": "uint256[]"
        }
      ],
      "name": "approveVoters",
      "outputs": [],
      "stateMutability": "nonpayable",
      "type": "function"
    },
    {
      "inputs": [
        {
          "internalType": "address",
          "name": "_address",
          "type": "address"
        },
        {
          "internalType": "uint256",
          "name": "_choice",
          "type": "uint256"
        }
      ],
      "name": "castVote",
      "outputs": [],
      "stateMutability": "nonpayable",
      "type": "function"
    },
    {
      "inputs": [],
      "name": "winningCandidate",
      "outputs": [
        {
          "internalType": "uint256",
          "name": "winningCandidate_",
          "type": "uint256"
        }
      ],
      "stateMutability": "view",
      "type": "function",
      "constant": true
    },
    {
      "inputs": [],
      "name": "winnerName",
      "outputs": [
        {
          "internalType": "string",
          "name": "winnerName_",
          "type": "string"
        },
        {
          "internalType": "string",
          "name": "vyingPosition_",
          "type": "string"
        },
        {
          "internalType": "uint256",
          "name": "votes",
          "type": "uint256"
        }
      ],
      "stateMutability": "view",
      "type": "function",
      "constant": true
    }
  ],
  "bytecode": "0x608060405234801561001057600080fd5b50611e09806100206000396000f3fe608060405234801561001057600080fd5b506004361061009e5760003560e01c8063a215059c11610066578063a215059c1461014b578063b9af3a4f14610169578063d28178d714610185578063e2ba53f0146101a3578063ff91bb45146101c35761009e565b80631bab7138146100a35780631d7b90e0146100bf578063310a1ee3146100dd578063648a305a146100fb5780636eeb5d5d1461012d575b600080fd5b6100bd60048036038101906100b891906113cb565b6101df565b005b6100c7610364565b6040516100d491906117c7565b60405180910390f35b6100e56104f1565b6040516100f291906118ce565b60405180910390f35b6101156004803603810190610110919061144a565b6104f7565b604051610124939291906117e9565b60405180910390f35b610135610641565b60405161014291906117a5565b60405180910390f35b610153610725565b604051610160919061178a565b60405180910390f35b610183600480360381019061017e919061135f565b61074b565b005b61018d610962565b60405161019a91906118ce565b60405180910390f35b6101ab610ad1565b6040516101ba939291906117e9565b60405180910390f35b6101dd60048036038101906101d89190611323565b610ce9565b005b33600260006101000a81548173ffffffffffffffffffffffffffffffffffffffff021916908373ffffffffffffffffffffffffffffffffffffffff16021790555060005b835181101561034c5760006040518060600160405280868481518110610272577f4e487b7100000000000000000000000000000000000000000000000000000000600052603260045260246000fd5b602002602001015181526020018584815181106102b8577f4e487b7100000000000000000000000000000000000000000000000000000000600052603260045260246000fd5b6020026020010151815260200160008152509080600181540180825580915050600190039060005260206000209060030201600090919091909150600082015181600001908051906020019061030f929190611012565b50602082015181600101908051906020019061032c929190611012565b50604082015181600201555050808061034490611ba5565b915050610223565b5080426103599190611a62565b600381905550505050565b60606000805480602002602001604051908101604052809291908181526020016000905b828210156104e857838290600052602060002090600302016040518060600160405290816000820180546103bb90611b42565b80601f01602080910402602001604051908101604052809291908181526020018280546103e790611b42565b80156104345780601f1061040957610100808354040283529160200191610434565b820191906000526020600020905b81548152906001019060200180831161041757829003601f168201915b5050505050815260200160018201805461044d90611b42565b80601f016020809104026020016040519081016040528092919081815260200182805461047990611b42565b80156104c65780601f1061049b576101008083540402835291602001916104c6565b820191906000526020600020905b8154815290600101906020018083116104a957829003601f168201915b5050505050815260200160028201548152505081526020019060010190610388565b50505050905090565b60035481565b6000818154811061050757600080fd5b906000526020600020906003020160009150905080600001805461052a90611b42565b80601f016020809104026020016040519081016040528092919081815260200182805461055690611b42565b80156105a35780601f10610578576101008083540402835291602001916105a3565b820191906000526020600020905b81548152906001019060200180831161058657829003601f168201915b5050505050908060010180546105b890611b42565b80601f01602080910402602001604051908101604052809291908181526020018280546105e490611b42565b80156106315780601f1061060657610100808354040283529160200191610631565b820191906000526020600020905b81548152906001019060200180831161061457829003601f168201915b5050505050908060020154905083565b60606001805480602002602001604051908101604052809291908181526020016000905b8282101561071c57838290600052602060002090600402016040518060800160405290816000820160009054906101000a900460ff16151515158152602001600182015481526020016002820160009054906101000a900473ffffffffffffffffffffffffffffffffffffffff1673ffffffffffffffffffffffffffffffffffffffff1673ffffffffffffffffffffffffffffffffffffffff16815260200160038201548152505081526020019060010190610665565b50505050905090565b600260009054906101000a900473ffffffffffffffffffffffffffffffffffffffff1681565b600260009054906101000a900473ffffffffffffffffffffffffffffffffffffffff1673ffffffffffffffffffffffffffffffffffffffff163373ffffffffffffffffffffffffffffffffffffffff16146107db576040517f08c379a00000000000000000000000000000000000000000000000000000000081526004016107d29061182e565b60405180910390fd5b60005b825181101561095d57600160405180608001604052806000151581526020016000815260200185848151811061083d577f4e487b7100000000000000000000000000000000000000000000000000000000600052603260045260246000fd5b602002602001015173ffffffffffffffffffffffffffffffffffffffff168152602001848481518110610899577f4e487b7100000000000000000000000000000000000000000000000000000000600052603260045260246000fd5b6020026020010151815250908060018154018082558091505060019003906000526020600020906004020160009091909190915060008201518160000160006101000a81548160ff0219169083151502179055506020820151816001015560408201518160020160006101000a81548173ffffffffffffffffffffffffffffffffffffffff021916908373ffffffffffffffffffffffffffffffffffffffff160217905550606082015181600301555050808061095590611ba5565b9150506107de565b505050565b6000600260009054906101000a900473ffffffffffffffffffffffffffffffffffffffff1673ffffffffffffffffffffffffffffffffffffffff163373ffffffffffffffffffffffffffffffffffffffff1614610a025742600354106109fd576040517f08c379a00000000000000000000000000000000000000000000000000000000081526004016109f4906118ae565b60405180910390fd5b610ace565b6000805b600080549050811015610acb578160008281548110610a4e577f4e487b7100000000000000000000000000000000000000000000000000000000600052603260045260246000fd5b9060005260206000209060030201600201541115610ab85760008181548110610aa0577f4e487b7100000000000000000000000000000000000000000000000000000000600052603260045260246000fd5b90600052602060002090600302016002015491508092505b8080610ac390611ba5565b915050610a06565b50505b90565b606080600080610adf610962565b81548110610b16577f4e487b7100000000000000000000000000000000000000000000000000000000600052603260045260246000fd5b90600052602060002090600302016000018054610b3290611b42565b80601f0160208091040260200160405190810160405280929190818152602001828054610b5e90611b42565b8015610bab5780601f10610b8057610100808354040283529160200191610bab565b820191906000526020600020905b815481529060010190602001808311610b8e57829003601f168201915b505050505092506000610bbc610962565b81548110610bf3577f4e487b7100000000000000000000000000000000000000000000000000000000600052603260045260246000fd5b90600052602060002090600302016001018054610c0f90611b42565b80601f0160208091040260200160405190810160405280929190818152602001828054610c3b90611b42565b8015610c885780601f10610c5d57610100808354040283529160200191610c88565b820191906000526020600020905b815481529060010190602001808311610c6b57829003601f168201915b505050505091506000610c99610962565b81548110610cd0577f4e487b7100000000000000000000000000000000000000000000000000000000600052603260045260246000fd5b9060005260206000209060030201600201549050909192565b8173ffffffffffffffffffffffffffffffffffffffff163373ffffffffffffffffffffffffffffffffffffffff1614610d57576040517f08c379a0000000000000000000000000000000000000000000000000000000008152600401610d4e9061188e565b60405180910390fd5b4260035411610d9b576040517f08c379a0000000000000000000000000000000000000000000000000000000008152600401610d929061186e565b60405180910390fd5b60005b60018054905081101561100d578273ffffffffffffffffffffffffffffffffffffffff1660018281548110610dfc577f4e487b7100000000000000000000000000000000000000000000000000000000600052603260045260246000fd5b906000526020600020906004020160020160009054906101000a900473ffffffffffffffffffffffffffffffffffffffff1673ffffffffffffffffffffffffffffffffffffffff161415610ffa5760018181548110610e84577f4e487b7100000000000000000000000000000000000000000000000000000000600052603260045260246000fd5b906000526020600020906004020160000160009054906101000a900460ff1615610ee3576040517f08c379a0000000000000000000000000000000000000000000000000000000008152600401610eda9061184e565b60405180910390fd5b6001808281548110610f1e577f4e487b7100000000000000000000000000000000000000000000000000000000600052603260045260246000fd5b906000526020600020906004020160000160006101000a81548160ff0219169083151502179055508160018281548110610f81577f4e487b7100000000000000000000000000000000000000000000000000000000600052603260045260246000fd5b906000526020600020906004020160010181905550600160008381548110610fd2577f4e487b7100000000000000000000000000000000000000000000000000000000600052603260045260246000fd5b90600052602060002090600302016002016000828254610ff29190611a62565b925050819055505b808061100590611ba5565b915050610d9e565b505050565b82805461101e90611b42565b90600052602060002090601f0160209004810192826110405760008555611087565b82601f1061105957805160ff1916838001178555611087565b82800160010185558215611087579182015b8281111561108657825182559160200191906001019061106b565b5b5090506110949190611098565b5090565b5b808211156110b1576000816000905550600101611099565b5090565b60006110c86110c38461190e565b6118e9565b905080838252602082019050828560208602820111156110e757600080fd5b60005b8581101561111757816110fd8882611251565b8452602084019350602083019250506001810190506110ea565b5050509392505050565b600061113461112f8461193a565b6118e9565b9050808382526020820190508285602086028201111561115357600080fd5b60005b8581101561119d57813567ffffffffffffffff81111561117557600080fd5b80860161118289826112e4565b85526020850194506020840193505050600181019050611156565b5050509392505050565b60006111ba6111b584611966565b6118e9565b905080838252602082019050828560208602820111156111d957600080fd5b60005b8581101561120957816111ef888261130e565b8452602084019350602083019250506001810190506111dc565b5050509392505050565b600061122661122184611992565b6118e9565b90508281526020810184848401111561123e57600080fd5b611249848285611b00565b509392505050565b60008135905061126081611da5565b92915050565b600082601f83011261127757600080fd5b81356112878482602086016110b5565b91505092915050565b600082601f8301126112a157600080fd5b81356112b1848260208601611121565b91505092915050565b600082601f8301126112cb57600080fd5b81356112db8482602086016111a7565b91505092915050565b600082601f8301126112f557600080fd5b8135611305848260208601611213565b91505092915050565b60008135905061131d81611dbc565b92915050565b6000806040838503121561133657600080fd5b600061134485828601611251565b92505060206113558582860161130e565b9150509250929050565b6000806040838503121561137257600080fd5b600083013567ffffffffffffffff81111561138c57600080fd5b61139885828601611266565b925050602083013567ffffffffffffffff8111156113b557600080fd5b6113c1858286016112ba565b9150509250929050565b6000806000606084860312156113e057600080fd5b600084013567ffffffffffffffff8111156113fa57600080fd5b61140686828701611290565b935050602084013567ffffffffffffffff81111561142357600080fd5b61142f86828701611290565b92505060406114408682870161130e565b9150509250925092565b60006020828403121561145c57600080fd5b600061146a8482850161130e565b91505092915050565b600061147f83836116c0565b60808301905092915050565b60006114978383611715565b905092915050565b6114a881611ab8565b82525050565b6114b781611ab8565b82525050565b60006114c8826119e3565b6114d28185611a1e565b93506114dd836119c3565b8060005b8381101561150e5781516114f58882611473565b975061150083611a04565b9250506001810190506114e1565b5085935050505092915050565b6000611526826119ee565b6115308185611a2f565b935083602082028501611542856119d3565b8060005b8581101561157e578484038952815161155f858261148b565b945061156a83611a11565b925060208a01995050600181019050611546565b50829750879550505050505092915050565b61159981611aca565b82525050565b60006115aa826119f9565b6115b48185611a40565b93506115c4818560208601611b0f565b6115cd81611c7b565b840191505092915050565b60006115e3826119f9565b6115ed8185611a51565b93506115fd818560208601611b0f565b61160681611c7b565b840191505092915050565b600061161e603283611a51565b915061162982611c8c565b604082019050919050565b6000611641600d83611a51565b915061164c82611cdb565b602082019050919050565b6000611664601083611a51565b915061166f82611d04565b602082019050919050565b6000611687601d83611a51565b915061169282611d2d565b602082019050919050565b60006116aa602983611a51565b91506116b582611d56565b604082019050919050565b6080820160008201516116d66000850182611590565b5060208201516116e9602085018261176c565b5060408201516116fc604085018261149f565b50606082015161170f606085018261176c565b50505050565b60006060830160008301518482036000860152611732828261159f565b9150506020830151848203602086015261174c828261159f565b9150506040830151611761604086018261176c565b508091505092915050565b61177581611af6565b82525050565b61178481611af6565b82525050565b600060208201905061179f60008301846114ae565b92915050565b600060208201905081810360008301526117bf81846114bd565b905092915050565b600060208201905081810360008301526117e1818461151b565b905092915050565b6000606082019050818103600083015261180381866115d8565b9050818103602083015261181781856115d8565b9050611826604083018461177b565b949350505050565b6000602082019050818103600083015261184781611611565b9050919050565b6000602082019050818103600083015261186781611634565b9050919050565b6000602082019050818103600083015261188781611657565b9050919050565b600060208201905081810360008301526118a78161167a565b9050919050565b600060208201905081810360008301526118c78161169d565b9050919050565b60006020820190506118e3600083018461177b565b92915050565b60006118f3611904565b90506118ff8282611b74565b919050565b6000604051905090565b600067ffffffffffffffff82111561192957611928611c4c565b5b602082029050602081019050919050565b600067ffffffffffffffff82111561195557611954611c4c565b5b602082029050602081019050919050565b600067ffffffffffffffff82111561198157611980611c4c565b5b602082029050602081019050919050565b600067ffffffffffffffff8211156119ad576119ac611c4c565b5b6119b682611c7b565b9050602081019050919050565b6000819050602082019050919050565b6000819050602082019050919050565b600081519050919050565b600081519050919050565b600081519050919050565b6000602082019050919050565b6000602082019050919050565b600082825260208201905092915050565b600082825260208201905092915050565b600082825260208201905092915050565b600082825260208201905092915050565b6000611a6d82611af6565b9150611a7883611af6565b9250827fffffffffffffffffffffffffffffffffffffffffffffffffffffffffffffffff03821115611aad57611aac611bee565b5b828201905092915050565b6000611ac382611ad6565b9050919050565b60008115159050919050565b600073ffffffffffffffffffffffffffffffffffffffff82169050919050565b6000819050919050565b82818337600083830152505050565b60005b83811015611b2d578082015181840152602081019050611b12565b83811115611b3c576000848401525b50505050565b60006002820490506001821680611b5a57607f821691505b60208210811415611b6e57611b6d611c1d565b5b50919050565b611b7d82611c7b565b810181811067ffffffffffffffff82111715611b9c57611b9b611c4c565b5b80604052505050565b6000611bb082611af6565b91507fffffffffffffffffffffffffffffffffffffffffffffffffffffffffffffffff821415611be357611be2611bee565b5b600182019050919050565b7f4e487b7100000000000000000000000000000000000000000000000000000000600052601160045260246000fd5b7f4e487b7100000000000000000000000000000000000000000000000000000000600052602260045260246000fd5b7f4e487b7100000000000000000000000000000000000000000000000000000000600052604160045260246000fd5b6000601f19601f8301169050919050565b7f4f6e6c7920656c656374696f6e20636f6d6d697373696f6e65722063616e206760008201527f6976652072696768747320746f20766f74650000000000000000000000000000602082015250565b7f416c726561647920766f74656400000000000000000000000000000000000000600082015250565b7f566f74696e672068617320656e64656400000000000000000000000000000000600082015250565b7f496e636f7272656374207472616e73616374696e672061646472657373000000600082015250565b7f596f752063616e20636865636b207468652077696e6e6572207768656e20766f60008201527f74696e6720656e64730000000000000000000000000000000000000000000000602082015250565b611dae81611ab8565b8114611db957600080fd5b50565b611dc581611af6565b8114611dd057600080fd5b5056fea2646970667358221220e5b60bb1c06834e9f65c5a93609fcce940a83fa92bd00a02f5aeae7ed088d8b564736f6c63430008040033",
  "immutableReferences": {},
  "source": "// SPDX-License-Identifier: MIT\npragma solidity >=0.8.0 <0.9.0;\n\ncontract voting {\n    ///custom data type to collect details of candidates\n    struct candidateDetails {\n        string name;\n        string vyingPosition;\n        uint256 voteCount;\n    }\n\n    ///same as above, collecting details of voters\n    struct Voter {\n        bool voted;\n        uint256 vote; ///index of the candidate a voter votes for\n        address voterAddress;\n        uint256 studentId;\n    }\n\n    /*public array of data type 'candidateDetails' to\n    take more than one candidate when necessary*/\n\n    candidateDetails[] public _candidates;\n\n    Voter[] internal allowedVoters; ///array of voters allowed to vote\n\n    //mapping(address => Voter) public voters;\n\n    address public electionOfficer; ///declaring address of person who calls poll creation contract\n\n    uint256 public expireTime;\n\n    /// display the candidates\n    function showCandidates() public view returns (candidateDetails[] memory) {\n        return _candidates;\n    }\n\n    function showAllowed() public view returns (Voter[] memory) {\n        return allowedVoters;\n    }\n\n    /*constructor takes to sets of array stored in memory to record \n    the details of the various candidates and whatever position the \n    candidate is vies for*/\n\n    function createPoll(\n        string[] memory candidateInfo,\n        string[] memory position,\n        uint256 _timeLimit\n    ) public {\n        electionOfficer = msg.sender;\n\n        for (uint256 i = 0; i < candidateInfo.length; i++) {\n            _candidates.push(\n                candidateDetails({\n                    name: candidateInfo[i],\n                    vyingPosition: position[i],\n                    voteCount: 0\n                })\n            );\n        }\n\n        expireTime = block.timestamp + _timeLimit;\n    }\n\n    /*\n    approvedVoters function takes addresses and student Ids of people(students) who the ballot\n    creator(electionOfficer) wants to participate in the election\n    */\n    function approveVoters(address[] memory _voter, uint256[] memory _studentId)\n        public\n    {\n        require(\n            msg.sender == electionOfficer,\n            \"Only election commissioner can give rights to vote\"\n        );\n\n        for (uint256 j = 0; j < _voter.length; j++) {\n            allowedVoters.push(\n                Voter({\n                    voterAddress: _voter[j],\n                    studentId: _studentId[j],\n                    voted: false,\n                    vote: 0\n                })\n            );\n        }\n    }\n\n    function castVote(address _address, uint256 _choice) public {\n        require(msg.sender == _address, \"Incorrect transacting address\");\n        require(expireTime > block.timestamp, \"Voting has ended\");\n\n        for (uint256 k = 0; k < allowedVoters.length; k++) {\n            if (allowedVoters[k].voterAddress == _address) {\n                require(!allowedVoters[k].voted, \"Already voted\");\n                allowedVoters[k].voted = true;\n                allowedVoters[k].vote = _choice;\n                _candidates[_choice].voteCount += 1;\n            }\n        }\n    }\n\n    function winningCandidate()\n        public\n        view\n        returns (uint256 winningCandidate_)\n    {\n        if (msg.sender != electionOfficer) {\n            require(\n                expireTime < block.timestamp,\n                \"You can check the winner when voting ends\"\n            );\n        } else {\n            uint256 winningVoteCount = 0;\n\n            for (uint256 p = 0; p < _candidates.length; p++) {\n                if (_candidates[p].voteCount > winningVoteCount) {\n                    winningVoteCount = _candidates[p].voteCount;\n                    winningCandidate_ = p;\n                }\n            }\n        }\n    }\n\n    /**\n     * @dev Calls winningProposal() function to get the index of the winner contained in the proposals array and then\n     * @return winnerName_ the name of the winner\n     * @return vyingPosition_ the position of the winner\n     */\n    function winnerName()\n        public\n        view\n        returns (\n            string memory winnerName_,\n            string memory vyingPosition_,\n            uint256 votes\n        )\n    {\n        winnerName_ = _candidates[winningCandidate()].name;\n        vyingPosition_ = _candidates[winningCandidate()].vyingPosition;\n        votes = _candidates[winningCandidate()].voteCount;\n    }\n}\n",
  "sourcePath": "/home/jayus/Desktop/voting/voting/voting/contracts/voting.sol",
  "compiler": {
    "name": "solc",
    "version": "0.8.4+commit.c7e474f2.Emscripten.clang"
  },
  "schemaVersion": "3.4.1",
  "updatedAt": "2021-08-24T11:45:58.393Z",
  "networkType": "ethereum",
  "devdoc": {
    "kind": "dev",
    "methods": {
      "winnerName()": {
        "details": "Calls winningProposal() function to get the index of the winner contained in the proposals array and then",
        "returns": {
          "vyingPosition_": "the position of the winner",
          "winnerName_": "the name of the winner"
        }
      }
    },
    "version": 1
  },
  "userdoc": {
    "kind": "user",
    "methods": {
      "electionOfficer()": {
        "notice": "array of voters allowed to vote"
      },
      "expireTime()": {
        "notice": "declaring address of person who calls poll creation contract"
      },
      "showCandidates()": {
        "notice": "display the candidates"
      }
    },
    "version": 1
  }
}